:020000040020DA
:1000000000800020D5392000DD392000DF392000B4
:10001000E1392000E1392000E13920000000000032
:10002000000000000000000000000000E139200096
:10003000E139200000000000E1392000E139200012
:10004000E1392000E1392000E1392000E1392000C8
:1000500000000000E1392000E1392000E1392000F2
:10006000E139200000000000000000000000000056
:100070000000000000000000E13920000000000046
:100080000000000000000000E1392000E1392000FC
:10009000E1392000E1392000E1392000E139200078
:1000A000E1392000E1392000E1392000E139200068
:1000B000E1392000E1392000E1392000E139200058
:1000C000E1392000E1392000E1392000E139200048
:1000D000E1392000000000000000000000000000E6
:1000E0000000000000000000000000000000000010
:1000F000E139200000000000E1392000E139200052
:1001000000000000000000000000000000000000EF
:1001100000000000000000000000000000000000DF
:1001200000000000000000000000000000000000CF
:1001300000000000000000000000000000000000BF
:1001400000000000000000000000000000000000AF
:10015000000000000000000000000000000000009F
:10016000000000000000000000000000000000008F
:10017000000000000000000000000000000000007F
:10018000000000000000000000000000000000006F
:10019000000000000000000000000000000000005F
:1001A000000000000000000000000000000000004F
:1001B000000000000000000000000000000000003F
:1001C000000000000000000000000000000000002F
:1001D000000000000000000000000000000000001F
:1001E000000000000000000000000000000000000F
:1001F00000000000000000000000000000000000FF
:1002000000000000000000000000000000000000EE
:1002100000000000000000000000000000000000DE
:1002200000000000000000000000000000000000CE
:1002300000000000000000000000000000000000BE
:1002400000000000000000000000000000000000AE
:10025000000000000000000000000000000000009E
:10026000000000000000000000000000000000008E
:10027000E1392000E1392000E1392000E139200096
:10028000E1392000E1392000E139200010B54FF4B8
:10029000C1710022DFF82047200000F0ADFB0120F3
:1002A000DFF81417487000F0DFFB00F05DFD00F090
:1002B000CDFD00F0E8FDDFF80017087001F0FEF852
:1002C000DFF8F80601F0ACF90FF2AD5001F0E4FAF6
:1002D0000FF2A95001F0E4FA0FF2B5410FF24530E8
:1002E00001F077FC00F009F80C210FF20D3000F05E
:1002F0006CFD00F047FD002010BD80B501F074FCDE
:1003000001F06CFC0020DFF8B01681F8490001BD57
:1003100080B5DFF8A40690F8230000281FD0DFF88E
:100320009806B0F85400401CDFF88C16A1F8540071
:100330004FF6FF70DFF88016C8840020DFF87816CB
:1003400081F822000020DFF8701681F828000020D4
:10035000DFF8641681F829007E2001F057FC01BD0A
:1003600080B5DFF8540690F84800002809D1DFF87E
:100370004806B0F85800401CDFF83C16A1F85800B9
:1003800021E0DFF8340690F82A00012806D003287F
:1003900007D0042808D0062809D00BE000F016F892
:1003A00011E000F049F80EE000F070F80BE000F00A
:1003B000E3F808E0DFF80006B0F85A00401CDFF868
:1003C000F815A1F85A00FFF798FF01BD80B5DFF8D6
:1003D000E80590F84800012809D0DFF8DC05B0F8FE
:1003E0005800401CDFF8D015A1F8580004E00C219B
:1003F0000FF2090000F0E9FC01BD000010B5DFF8C4
:10040000C04502202070DFF8B00540786070DFF84A
:10041000A805408800F0FDF860800822DFF89C15F0
:10042000241D200001F038FC0C20DFF88C1581F829
:100430002300FFF76DFF10BD80B5DFF87C0590F855
:100440004800012809D0DFF87005B0F85800401CBA
:10045000DFF86415A1F8580017E0DFF85C05407874
:10046000022805D1DFF85005007800F033FE06E0E1
:10047000DFF844054078042801D101F010F801F0BC
:1004800053FA0120DFF83015487001BD30B583B054
:10049000DFF8240590F84800122809D0DFF8180585
:1004A000B0F85800401CDFF81015A1F8580062E0C1
:1004B0000220DFF8041548700020DFF8FC144880A3
:1004C000DFF800450020DFF8F014A1F8DE00207C02
:1004D000DFF8E41481F8E000A08900F09AF8DFF872
:1004E000D814A1F8E2000822DFF8D014DFF8D854BD
:1004F000280001F0D1FB608900F08BF8ADF8060010
:1005000002220DF10601DFF8C454280001F0C4FBFB
:10051000DFF8A404B0F8DE0000F07BF8ADF80400CA
:10052000022201A9DFF8A854280001F0B5FBDFF88A
:10053000880490F8E0101039627CDFF898542800A5
:1005400000F05AFA01F0EAF9B4F80720D4F80310E1
:10055000B4F8010001F0A8F9E08900F05AF80FF2B0
:10056000C13100910023002280B20100DFF848046D
:10057000007800F0A5FC37BD38B5DFF83C0490F8F2
:100580004800152809D0DFF83004B0F85800401CA6
:10059000DFF82414A1F858002CE0DFF82844B4F860
:1005A000110000F036F8DFF81014A1F87E01207D6C
:1005B000DFF8041481F87401082214F10901DFF84E
:1005C0001854280001F068FB0020DFF8EC13488085
:1005D00000F060FF01F0A2F9B4F80720D4F803108E
:1005E000B4F8010001F060F901F0DCF90420DFF853
:1005F000C813487031BD000080B5DFF8C40308217E
:1006000001700120DFF8B01381F82300FFF780FEAE
:1006100001BD0100080080B2000A50EA012080B24A
:100620007047000010B500F02BFFDFF88C0390F846
:10063000230000286FD0DFF88003DFF87C1391F8E7
:10064000221008440479DFF8700390F82400002891
:100650000ED1E4B27E2C02D0E4B27D2C08D17D20F4
:1006600001F0D4FA0120DFF8501381F824002BE0C8
:100670002100C9B2DFF84003C08C01F049FBDFF86C
:100680003813C884DFF8300390F82400012806D11D
:1006900094F020040020DFF8201381F82400DFF814
:1006A000180390F82200401CDFF80C1381F8220098
:1006B000DFF8040390F82300401EBF4981F82300AF
:1006C0002000C0B201F0A2FABB4890F82300002835
:1006D0002DD1B94890F82800002828D1B648C08C00
:1006E000C043B549B44A92F822201144087180B23F
:1006F000000AB149B04A92F8222011444871AE482C
:1007000090F82300801CAC4981F823000120AA49FD
:1007100081F828000BE0A84890F82900002806D1AD
:100720000120A54981F829007E2001F06FFA00F030
:10073000ACFE10BD80B50100C9B27D2904D10120F5
:100740009D4981F84A0021E09B4890F84A00012821
:1007500005D191F020010020974A82F84A0096487E
:10076000954A92F84820104480F82A10924890F850
:100770004800401C904A82F84800C9B28E48B0F840
:100780004C0001F0C5FA8C49A1F84C0001BD0000F5
:1007900010B500F075FE01F040FA0400864890F8AC
:1007A0004E00002819D1844890F849007E2814D1C1
:1007B000E4B27E2C11D001207F4981F84E00002048
:1007C0007D4981F848004FF6FF707B49A1F84C0045
:1007D0002000C0B2FFF7AEFF47E0774890F84E0028
:1007E000012815D1E4B27E2C12D02000C0B2FFF750
:1007F000A1FF714890F84800401C1F2835DB0020FD
:100800006D4981F8480000206B4981F84E002CE0CA
:10081000694890F84E00012827D1E4B27E2C24D1FB
:100820006548B0F84C004FF2B801884212D16248D6
:10083000B0F85000401C6049A1F850005E4890F8A4
:100840004800801E5C4981F848000C21634800F094
:10085000BCFA06E05848B0F85200401C5649A1F8CE
:1008600052000020544981F84E00534880F8494016
:1008700000F00BFE10BD0000704700003EB50124E3
:1008800001F052F84C484078042848D1544802906E
:100890005448019054480090544B81225449554883
:1008A00001F09AF8534D08224B49280001F040FA14
:1008B000002800D0002428893F49B1F87E118842E1
:1008C00000D00024287B3C4991F87411884200D064
:1008D0000024E4B2002C19D03948072101703649B0
:1008E000B1F86E114170344991F87111817032493B
:1008F00091F87311A40154EAC114C470698981800C
:1009000006202D4981F82300FFF702FD2A48408880
:10091000401C2949488001F001F801F043F837BD37
:1009200010B582B00A2400F09CFD234890F8E01036
:1009300089B2254801F008F801F012F801F01CF81E
:1009400000F094FD1C48B0F8DE001B49B1F8E2103D
:10095000884217D11848007800F0BCFB00F0E4FF93
:1009600003201549487016480521017001201249DD
:1009700081F82300FFF7CCFC0F484088401C0E494B
:10098000488017E00C48B0F8DE00401C0A49A1F886
:10099000DE000948B0F8DE00FFF73BFEADF80000CE
:1009A000022269460448E4B2204410F15C042000AD
:1009B00001F072F913BD0000904200207443002042
:1009C00094420020BA420020EC420020F442002071
:1009D000F6420020F8420020054400206103200078
:1009E0001044002003440020024400200144002061
:1009F000FE4300207C43002062F30F2262F31F427B
:100A0000401810F0030308D0C91A1FD3DB0748BFF2
:100A100000F8012D28BF20F8022D130030B4144631
:100A20001546103928BF20E93C00FAD8490728BFED
:100A300020E90C0048BF40F8042D890028BF20F8A9
:100A4000022D48BF00F8012D30BC7047C91818BFEF
:100A500000F8012DCB0728BF00F8012D70470000DA
:100A600080B5FFF713FC02BD80B50020B6490870C1
:100A700000F047F800F057F800F021F800F032F8E5
:100A800000F0E4FC01F086F900F07FF801F0C4F911
:100A900001F05EF801F008FA684601F043FA01F04F
:100AA0008DFA009801F044FA01F002FD00F05CFEBE
:100AB00000985C3000F0CEFD01F0C2FD01BD80B5B4
:100AC00010221021A14801F066FE002208219F4853
:100AD00001F061FE01BD80B5002001F0FBFF01F0D7
:100AE00063FF01BD80B53221994802F023F84FF62B
:100AF000FF71974802F014F801BD80B501F050FF76
:100B000001BD80B5FF21934801F04BFEFF219248C3
:100B100001F047FEFF21914801F043FEFF218B4881
:100B200001F03FFE01BD10B502F028F804000022DC
:100B30004021864801F0ABFD00228021834801F06E
:100B4000A6FD01224021814802F0D5F90122802131
:100B50007E4802F0D0F900220021012001F092FE2F
:100B6000002001F0ECFE7E4800680003FBD500F099
:100B700040F800F06CF800F098F800F0C4F8E4B227
:100B8000002C01D101F0F0FF10BD80B54FF6FF70D1
:100B9000009002E00098401E009000980028F9D1D3
:100BA00020216A4801F0D4FD2021684801F0DAFDD7
:100BB0002021664801F0F5FD00222021634801F064
:100BC0008AFD082001F04DFE2021604801F0CAFD99
:100BD0000FF241115D4801F0CAFD20215B4801F090
:100BE000C1FD2021594801F0AAFD01205649087095
:100BF00001BD80B5002001F01EFF012001F01BFFA8
:100C0000032001F018FF4FF4807001F014FF40F250
:100C1000011001F010FF40F2012001F00CFF4FF431
:100C2000407001F008FF4FF4806001F004FF40F2D3
:100C3000014001F000FF022001F0EAFE4FF40070D5
:100C400001F0E6FE4FF4A06001F0E2FE01BD80B5C8
:100C5000002001F017FF012001F014FF032001F034
:100C600011FF4FF4807001F00DFF40F2011001F010
:100C700009FF40F2012001F005FF4FF4407001F040
:100C800001FF4FF4806001F0FDFE40F2014001F0F1
:100C9000F9FE022001F0E3FE4FF4007001F0DFFEE8
:100CA0004FF4A06001F0DBFE01BD80B5002001F033
:100CB000FDFE012001F0FAFE022001F0F7FE032004
:100CC00001F0F4FE4FF4807001F0F0FE40F20110EC
:100CD00001F0ECFE4FF4007001F0E8FE40F201205C
:100CE00001F0E4FE4FF4407001F0E0FE4FF480604C
:100CF00001F0DCFE40F2014001F0D8FE4FF4A060AC
:100D000001F0D4FE01BD80B5202001F0AAFD01BD97
:100D10000000000080B520210C4801F023FD0A48A6
:100D20000078002801D000F001F801BD80B501F085
:100D300025FF00F0C3FB0B4802F02AF900F0EEFBA0
:100D400001F02EFE01BD0000FA46002000C00D405B
:100D50000020034000900D4000A00D4000B00D4069
:100D600004200D4000F8270010B580210022334CEC
:100D70002000FFF741FE02210022314C2000FFF746
:100D80003BFE10BD10B51FE001F0F8FE2B48846F4C
:100D9000A0682A49886701F0E7FE206880470020A4
:100DA0002060002020710020A06025480078401EAF
:100DB000234908702148806F0028E5D101F007F829
:100DC000FFF789FE01F004F8F4E770B505000E00A6
:100DD00001F0D4FE194C00E00C342068002802D049
:100DE0001848A042F8D21748A04203D200F06BFB8B
:100DF000FFF783FE25602671134902E0086810F1B1
:100E000008010868002804D020790A681279904205
:100E1000F4D20868A0600C6009480078401C0849BA
:100E200008700748407806490978884203D2044888
:100E300000780349487001F097FE70BD34460020E9
:100E4000F8460020A0460020AC46002010B54FF424
:100E5000B4710022DFF8F0452000FFF7CDFD00203F
:100E600009E0FF21DFF8E025C0B21C2303FB00F3FB
:100E70001A441175401CC0B20A28F2DB0FF2792027
:100E800000F0DAFF10BD002000E0401CC0B20A28CC
:100E900014DADFF8B415C0B21C2202FB00F21144D0
:100EA000497C0029F1D10121DFF89C25C0B21C2327
:100EB00003FB00F31A445174C0B200E0FF207047F6
:100EC00070B50400002500E06D1CEDB20A2D0FDAAC
:100ED000DFF87405EDB21C2606FB05F63044407CB5
:100EE0000028F1D028002600C0B2F6B2B042EBD103
:100EF000EDB20A2D00F0ED80DFF84C05E4B21C25C0
:100F000005FB04F528448374D2B2002A02D0012ADA
:100F100019D02BE0212000FB01F0DFF82C25E4B2F2
:100F20001C2303FB04F3D050212041437FF00040F9
:100F3000B1FBF0F0DFF81015E4B21C2202FB04F262
:100F40001144088112E0DFF80005E4B21C2202FB24
:100F500004F281507FF00040B1FBF0F0DFF8E814BC
:100F6000E4B21C2202FB04F211440881DFF8D80429
:100F7000E4B21C2101FB04F108440089002812D1CD
:100F800000F07AFFDFF8C014E4B21C2202FB04F286
:100F900089584018DFF8B014E4B21C2202FB04F2B6
:100FA000114448600CE000F067FF7FF00041081832
:100FB000DFF89414E4B21C2202FB04F211444860EE
:100FC0000120DFF88414E4B21C2202FB04F2114475
:100FD00008740499DFF87024E4B21C20444302EB47
:100FE00004008161DFF8600490F8650100286BD18E
:100FF000DFF854044068DFF85014D1F82011411A8A
:10100000002201251AE0DFF84034EDB21C2404FB75
:1010100005F423441B7DDFF83044D2B21C2606FBC6
:1010200002F63444247DA34207D2431A0A2B04D289
:1010300001002A0001E001002A006D1CEDB20A2D1A
:1010400030DADFF80404EDB21C2303FB05F3184487
:10105000007C0028F1D0DFF8F003EDB21C2303FB85
:1010600005F318444368DFF8E003D0F82001181AAC
:101070008842C8D2DFF8D033D2B21C2404FB02F479
:1010800023441B7DDFF8C043EDB21C2606FB05F6AA
:101090003444247DA342CED20B1A0B2BCDD30100B6
:1010A0002A00CAE7DFF8A013D2B21C20424301EBAA
:1010B00002004068DFF89013C1F81C01DFF88803D4
:1010C000D0F81C0100F0BBFE0120DFF87C1381F892
:1010D000180170BD0021DFF87023C0B21C2303FB90
:1010E00000F31A4411740022DFF85C33C0B21C21F3
:1010F000484318448261704770B582B0DFF84803F6
:10110000D0F81C21002130E0DFF83C03C9B21C23D9
:1011100003FB01F31844007C012825D1DFF82803E4
:10112000D0F81C31C848C9B21C2404FB01F4204487
:1011300040681B1A0B2B17D20120C34BC9B21C24C9
:1011400004FB01F42344D874BF48C9B21C2303FB39
:1011500001F318444068904206D2BB48C9B21C2231
:1011600002FB01F210444268491CC9B20A29CBDBD8
:10117000B548C0F820210120B34981F86501FF245A
:1011800000251FE0B048EDB21C2101FB05F1084429
:10119000007DAD49E4B21C2202FB04F21144097D3A
:1011A00088420ED22C000CE0A748EDB21C2101FBB6
:1011B00005F10844C07C012803D1E4B2FF2CE1D141
:1011C0002C006D1CEDB20A2DEEDBE4B2FF2C00F01A
:1011D000B780002549E09C48EDB21C2101FB05F1D8
:1011E0000844C1687FF0004041189748EDB21C22C6
:1011F00002FB05F2104441602EE09348EDB21C2141
:1012000001FB05F108440089401E8F49EDB21C2204
:1012100002FB05F2114408818B48EDB21C2101FB51
:1012200005F1084400890028D5D18748EDB21C217A
:1012300001FB05F141588448EDB21C2202FB05F286
:101240001044C068411821F000417F48EDB21C22D3
:1012500002FB05F21044416000207B49EDB21C22E4
:1012600002FB05F21144C8746D1CEDB20A2D67DA59
:101270007548EDB21C2101FB05F10844C07C012832
:10128000F2D17148EDB21C2101FB05F10844007D4B
:101290006D49E4B21C2202FB04F21144097D88422C
:1012A000E2D16948EDB21C2101FB05F10844406818
:1012B0006549EDB21C2202FB05F21144C860624888
:1012C000EDB21C2101FB05F108440089002894D1EE
:1012D00000205D49EDB21C2202FB05F211440874A6
:1012E00000205949EDB21C2202FB05F21144C874DA
:1012F0002800C0B25449EDB21C2202FB05F2114491
:10130000896988475048EDB21C2101FB05F108446A
:10131000807C0028A8D14C48EDB21C2101FB05F1CE
:10132000084480690090002301224748EDB21C2147
:1013300001FB05F141582800C0B2FFF7C1FD93E75A
:101340000020414981F865013F4841683E480289D3
:101350007FF0004000FB02113B48D0F820218A1AA0
:101360000023012118E0384CC9B21C2505FB01F50A
:101370002C44247D344DDBB21C2606FB03F6354499
:101380002D7DAC4207D2841A0A2C04D202000B0035
:1013900001E002000B00491CC9B20A292BDA2A48D5
:1013A000C9B21C2404FB01F42044007C0028F2D0C4
:1013B0002548C9B21C2404FB01F420444468224897
:1013C000D0F82001201A9042CDD21F4CDBB21C2550
:1013D00005FB03F52C44247D1B4DC9B21C2606FBDE
:1013E00001F635442D7DAC42D3D2141A0B2CD2D346
:1013F00002000B00CFE71449DBB21C20434301EB92
:10140000030040681049C1F81C010F480E4991F8CB
:10141000641100EB81000C49D1F81C11C0F82411B3
:10142000094890F86401401C10F00F00064981F84B
:1014300064010548D0F81C0100F001FD01200249BB
:1014400081F8180173BD00001444002080B5F0211C
:10145000724801F0B6F9F022F021704801F09BF9D2
:1014600001BD80B5102000F0B5F801BD80B5102099
:1014700000F0B8F801BD80B5102000F0BCF801BD47
:1014800080B5202000F0A6F801BD80B5202000F036
:10149000A9F801BD80B5802000F09CF801BD80B5A1
:1014A000802000F09FF801BD80B5402000F092F848
:1014B00001BD80B5402000F095F801BD80B5F02059
:1014C00000F090F801BD10B582B0F02000F08AF86D
:1014D000002409E0BDF80000401EADF80000BDF892
:1014E00000000028F6D1641CE4B2502C15DA10205C
:1014F00000F081F84FF6FF70ADF8000004E0BDF891
:101500000000401EADF80000BDF800000028F6D134
:101510004FF6FF70ADF80000E1E713BD10B582B0E3
:10152000F02000F05FF800240CE0BDF80000401E41
:10153000ADF80000BDF800000028F6D1F02000F062
:1015400051F8641CE4B20A2C43DA102000F042F88F
:101550004FF6FF70ADF8000004E0BDF80000401E3B
:10156000ADF80000BDF800000028F6D1102000F012
:1015700039F8202000F02EF84FF6FF70ADF800008B
:1015800004E0BDF80000401EADF80000BDF800000A
:101590000028F6D1202000F025F8402000F01AF8AD
:1015A0004FF6FF70ADF8000004E0BDF80000401EEB
:1015B000ADF80000BDF800000028F6D1402000F092
:1015C00011F8802000F006F84FF6FF70ADF800002B
:1015D000B0E713BD80B501000022C9B20F4801F089
:1015E000DAF801BD80B50200D2B21100C9B20B48D1
:1015F00001F0D1F801BD10B504002100C9B20748BF
:1016000001F0C4F8E4B234EA00000200D2B22100D2
:10161000C9B2024801F0BFF810BD000000B00D4093
:10162000094903E00A780270491E401CB1F1281FE5
:10163000F8D2064903E00A780270491E401C044AA9
:101640009142F8D2704700BF2B0028002F002800DD
:101650002C0028000FF20121C1610FF28D01016001
:101660000FF2051141600FF2312181600FF231213B
:10167000C1600FF2A92101610FF2AD2141610FF2AA
:10168000292181610FF2D111C1610FF2A51101620F
:101690000FF2C90141620FF2AD4181620FF2C12127
:1016A000C1620FF2D52101630FF29D2141630FF258
:1016B000994181630FF2ED21C1630FF29141016401
:1016C0000FF2013141640FF2113181640FF249319F
:1016D000C1640FF2414101650FF2413141650FF2E2
:1016E000413181657047000080B50121DFF80804B1
:1016F00001F067F80221DFF8040401F062F800222B
:101700000121DFF8F40301F046F800220221DFF89E
:10171000EC0301F040F80020009002E00098401C2B
:10172000009000984AF2C2218842F7D30122012199
:10173000DFF8C40301F02FF80020009002E00098C9
:10174000401C009000984AF2C2218842F7D302223E
:101750000221DFF8A80301F01EF801BD80B50721C2
:10176000052001F055FC01BD10B5FFF7BDFF1021AC
:101770000022DFF88C432000FFF73EF90020DFF85D
:1017800080130872FFF7EAFF022001F029FC01F044
:1017900007FD0228FBD10120DFF864130872012144
:1017A000DFF8580300F0D4FF0121DFF8500300F008
:1017B000F8FF04220121DFF8440300F08CFF01212F
:1017C000DFF8380300F0CEFF0FF28521CB4800F0A0
:1017D000CEFF0121C94800F0B2FF0D2001F03CFC12
:1017E000342801D0012400E000240E2001F034FC54
:1017F000032801D0012000E00020E4B2C0B204437D
:10180000002C00D0FEE700240BE0BE48A4B200EBA1
:1018100084008178BB48A4B230F8240001F0F8FBC2
:10182000641CA4B20F2CF0D300F0FCF810BD000033
:101830000421B54A1268B44B1B6893FBF1F301FB1A
:101840001321B24A32F811100180AF480068401CE1
:10185000AD4908607047000038B50500022001F06E
:10186000BFFB01F09DFC0228FBD1002409E0A4B2DB
:1018700005EB84008178A4B235F8240001F0C8FBA0
:10188000641CA4B2002CF2D000F0CCF8A048006890
:10189000401C9F49086031BD9949086070470000AD
:1018A000974948607047000038B50D0014001921B1
:1018B000B5FBF1F580B2192190FBF1F00100C9B23E
:1018C0004FF4827001F0A4FB2900C9B240F2051068
:1018D00001F09EFB2D0A2900C9B24FF4837001F07C
:1018E00097FBA4B24FF4807094FBF0F100FB114021
:1018F0000100C9B240F2071001F08AFBA4B24FF414
:10190000807094FBF0F00100C9B24FF4847001F0D4
:101910007FFB03207A49087231BD000080B50220A8
:1019200001F05EFB01BD000080B50D207449087216
:10193000022001F055FB00F05AFAFFF7BAFD012032
:101940006F49087201BD000080B504226C4B1A7209
:1019500089B201F09DFB05206949087201BD0000B4
:1019600080B5062066490872032001F039FB00F0BB
:1019700045FAFFF799FD01BD80B56148007A072857
:101980000ED108205E490872042001F029FB5C4852
:101990000068002804D000F06FFA594909688847A8
:1019A00001BD000080B509205549087200F026FAF3
:1019B000FFF77AFD052001F013FB0A205049087259
:1019C00001BD000080B501F0EBFB052802D0FFF758
:1019D00052FDFFE701BD000010B51C0001F099FBAE
:1019E0004FF4887001F038FB207040F2013001F0B4
:1019F00033FBC0B24009C0B2002801D0012100E091
:101A00000021049C0398017040F20D3001F024FB8A
:101A100010F00700207010BD042070472820704788
:101A20000020704780B5684601F0D5FB9DF80000A6
:101A3000334948729DF80100314988729DF80200CF
:101A40002F49C8729DF803002D49087301BD00009D
:101A500010B500F0C5F90121284800F083FE00F020
:101A60000BFA0400FFF7DEFF2548407A800702D515
:101A70000720234908722248C07AC0070BD50B20E3
:101A80001F4908721E480068002823D020001C4906
:101A9000096888471EE01A48C07AC0060BD50C209A
:101AA0001749087216484068002813D020001449CE
:101AB000496888470EE01248C07A80070AD50C2092
:101AC0000F4908720E484068002803D020000C49D6
:101AD0004968884700F003F800F07BF910BD00204A
:101AE0000749487200200649887200200449C872DC
:101AF000002003490873704700B00D4000C00D403E
:101B0000CC46002030372000F0460020F03920007D
:101B10008C42002010B4019CE4B2002C01D00020C3
:101B20000EE0C9B2C0B24018D2B290FBF2F102FB93
:101B30001100185C042190FBF1F201FB1200C0B20D
:101B400010BC7047704700007047000070470000ED
:101B500010B5082100224C4C2000FEF74DFF4B48E9
:101B600001F0ACFB41F6FF71484801F0F6FB0121A2
:101B7000464801F006FC00220221454801F0E6F843
:101B80000221434800F05DFE424A0121404801F035
:101B900017F901213E4800F044FE00F0D9FE010093
:101BA00060235FF4E132394801F044FB374801F02B
:101BB00074FB364801F097FB1021344801F09BFB81
:101BC0000FF26501314801F0AEFB152000F0FBFF7C
:101BD00010BD2D4A10602C484160704780B57021BF
:101BE0002A4801F0B3FB01BD80B57021274801F000
:101BF000B4FB01BD80B55021244801F0BFFB01BDFD
:101C000080B52021214801F0B9FB01BD80B501005C
:101C1000C9B21E4801F07FFB01BD80B51B4801F031
:101C200073FBC0B202BD000010B500F0D9F801216D
:101C3000164801F09AFB0400152001F054F8A006A4
:101C400001D500F008F814F0500F01D000F00FF8A3
:101C500000F0BFF810BD80B5FFF7D2FF0A4800685A
:101C6000002802D0084800688047002002BD80B5E7
:101C7000FFF7C0FF04484068002802D002484068CF
:101C80008047002002BD0000E846002000C0004060
:101C900000900D4000410D4062B38B0708D0521EEA
:101CA00011F8013B00F8013B00F024808B07F6D1CE
:101CB000830740F0208000BF103A07D330B4B1E86A
:101CC0003810103AA0E83810F9D230BC530724BFBE
:101CD000B1E80810A0E8081044BF51F8043B40F8F0
:101CE000043BD20724BF31F8022B20F8022B44BF5B
:101CF0000B7803707047083A07D3B1E80810083A28
:101D000040F8043B40F804CBF7D25307E4E7000067
:101D1000020092B2054B80B2C9B2484000F0FF0009
:101D200033F8100090EA122080B27047F03420009F
:101D30000300002013F0030F09D0521E22BF13F836
:101D4000010B11F801CBB0EB0C00F3D07047121F60
:101D500022BF53F8040B51F804CB6045F7D0121D95
:101D60000AD200BA9CFA8CFCB0EB0C0038BF6FF0C2
:101D7000000088BF01207047521E22BF13F8010BDC
:101D800011F801CBB0EB0C00F6D0521C08BF104686
:101D90007047000080B580211C4800F012FD08212A
:101DA0001B4800F00EFD0F211A4800F00AFD00222A
:101DB0008021164800F0EFFC00220821144800F0B2
:101DC000EAFC00220F21134800F0E5FC01BD70473A
:101DD000704780B5002208210D4800F0DCFC01BDF1
:101DE00080B5082208210A4800F0D5FC01BD80B565
:101DF00000220121074800F0CEFC01BD80B5012280
:101E00000121044800F0C7FC01BD000000900D4016
:101E100000B00D4000A00D4010B504210022214C5F
:101E20002000FEF7E9FD0FF25901A12000F0B0FEFD
:101E3000A12000F0FBFE10BD1A490860704710B5E4
:101E40000400A12000F0BFFE01F0A0FA001B7FF00B
:101E50007F41884203D2A12000F01BFF0BE001F07C
:101E600095FA201A0A2803D2A12000F012FF02E0FE
:101E7000200001F09AFA10BD80B501F087FA02BD8A
:101E800080B5FFF7ADFF07480068002807D0A12004
:101E900000F029FF034800688047FFF79AFFFFF72B
:101EA00098FF01BDF446002010B54FF4407000F0DB
:101EB000AFFD4FF4407000F0D2FD4FF4407000F0E1
:101EC000F5FD4FF4407000F073FD2021124800F042
:101ED00088FC124A2021104800F072FF0C222021B9
:101EE0000D4800F033FF10210B4800F07AFC0C4A3B
:101EF0001021094800F064FF0B221021064800F071
:101F000025FF012400F0F7FC2100C9B201F06CFAB2
:101F100001F081FA10BD000000A00D4030410D40DD
:101F20002C410D4001490160704700BF7C450020F5
:101F30000FF2655101600FF2850141600FF29511BA
:101F400081600FF29911C1600FF20D2101610FF252
:101F50000D2141610FF2D11181610FF24151C16137
:101F60000FF23D5101620FF27D1141620FF23551C6
:101F700081620FF25521C1620FF2652101630FF2F8
:101F8000FD1141630FF2215181630FF28121C16381
:101F90000FF2195101640FF28D2141640FF2A92152
:101FA00081640FF27931C1640FF2C54101650FF20E
:101FB000713141650FF26D318165704710B50C21AB
:101FC0000022DFF83C442000FEF716FD0020DFF879
:101FD00030140872ED20DFF82C140860ED20DFF8D3
:101FE00024140860EE20DFF81C140860EE20DFF8EF
:101FF0001414086000F081F900F078F91420DFF87B
:10200000081408603F20DFF8041408605520DFF84A
:10201000001408608520DFF8FC1308600120DFF859
:10202000F81308601520DFF8F41308601020DFF8BB
:10203000F01308600E20DFF8EC1308600320DFF8CF
:10204000E8130860F820DFF8E41308600920DFF8DF
:10205000E01308601520DFF8C41308600B2004218A
:102060000860FF20DFF8CC1308604020DFF8C813B9
:102070000860DFF8C803006840084000DFF8BC13C0
:1020800008600020DFF8B81308607F20DFF8B41381
:102090000860D520DFF8B01308600B20DFF8AC1320
:1020A00008600FF285219D2000F072FD0FF235319E
:1020B0009E2000F06DFD9D2000F085FD7F20DFF863
:1020C000901308609E2000F07EFD0120DFF83013A1
:1020D000087210BDDFF8281308607047DFF820137E
:1020E0004860704780B5DFF86C0300688007FAD459
:1020F000ED20DFF810130860ED20DFF8081308600A
:10210000EE20DFF800130860EE20DFF8F812086018
:10211000DFF844030068002802D0EF20B9490860C6
:10212000FFF74CFF01BD000010B514000220B449B8
:10213000087200F0E2F8A4B2B4F10B00102800D34A
:10214000FEE7A4B2052044432C3CDFF80003046002
:102150000320AB49087210BD7047000080B50D2008
:10216000A749087200F0C9F8FFF741FEFFF797F999
:1021700000F0BCF80120A249087201BD10B4002291
:1021800004229F4B1A72B34A12689207FBD4EE22C4
:102190009C4B1A60EE229B4B1A6089B2AF4A1160C9
:1021A000002204E0D2B2835CAC4C2360521C1300CA
:1021B000DBB20C009BB2A4B2A342F3D3052090493A
:1021C000087210BC7047000080B506208C49087268
:1021D000FFF714FEFFF75EF907208949087201BD79
:1021E00080B508208649087200F073F899480068A5
:1021F0008007FBD4E92083490860002000E0401CF0
:10220000944909688907FAD501BD000080B5092005
:102210007B490872FFF7F2FDFFF73CF90A20784985
:10222000087201BD80B5ED2076490860ED20754942
:10223000086000F04EF8E3207249086085480068A5
:10224000C007FBD501BD000030B40024834C2468D6
:10225000E4B2802C06DBED206A490860ED20694974
:10226000086034E0E4B2052C06DAED206549086028
:10227000ED20644908602AE02500EDB292B2ADB2CB
:10228000AA4206D2ED205F490860ED205D49086052
:102290001DE0002204E0714D2D68D2B28554521C1D
:1022A000D2B2E4B2A51EAA42F5DB6C4800684938F8
:1022B00018706A480068C0B2C009039A1070E4B28E
:1022C0000C80ED204F490860ED204E49086030BC7D
:1022D00070476348006850F0070061490860614832
:1022E000006850F002005F490860704700205C49B8
:1022F000086000205B490860704756480068800706
:10230000FBD455480068002806D0EF203D490860FE
:102310007FF0440054490860704700000220704775
:102320000C2070470020704738B5FFF759FDFFF7C4
:10233000A3FD00904C4804684C4805689D2000F0BF
:10234000D2FC002048490860002048490860E4B2F7
:10235000A0070ED50B202A490872294800680028DA
:1023600006D00098264909688847FFF732FD38E013
:10237000FEE7E4B260060ED50C2021490872204821
:102380004068002806D000981D4949688847FFF733
:1023900020FD26E0FEE7E4B260070ED50C201849C8
:1023A000087217484068002806D000981449496808
:1023B0008847FFF70EFD14E0FEE7EDB2A8070ED543
:1023C0000C200F4908720E484068002806D000987B
:1023D0000B4949688847FFF7FCFC02E0FEE7FFF77E
:1023E000F8FC31BD1A48006819490968C0B20840B4
:1023F000800703D57FF00200154908607047000090
:10240000DC46002038880840A4860840AC86084096
:10241000B0860840A0860840B8860840C8860840B4
:10242000D4860840D8860840DC8608405886084094
:10243000E8870840948708402486084000860840C2
:102440000886084050860840408608403C86084080
:10245000948608404C8608402C860840288808400E
:102460008C860840908608403488084030880840B0
:1024700010B4019CE4B2002C01D0C0B20AE0C9B291
:10248000C0B24018D2B290FBF2F102FB1100185C0E
:102490000B30C0B210BC704770470000704700009E
:1024A0007047000070470000704700007047000050
:1024B0001CB5182100225C4C2000FEF79DFA042177
:1024C0005A4800F07EF92021584800F07AF9082196
:1024D000564800F076F908220821544800F05BF9CC
:1024E00000222021514800F056F9002204214F48D3
:1024F00000F051F94FF4807000F08AFA4FF48070C8
:1025000000F0ADFA4FF4807000F0D0FA484800F0C7
:10251000C3FF0121464800F0DDFF042204214348A7
:1025200000F014FC03222021404800F00FFC414A37
:1025300010213E4800F044FC04213C4800F061F9C1
:1025400010213A4800F05DF92021384800F059F98F
:1025500000F0FEF9010008200190374800900023A8
:102560000022334800F066FF314800F08EFF13BDB3
:102570002DE9F04782B082460F00904699460A9CAA
:102580000B9D0C9E022202212C4800F004F92648E3
:10259000C0F800A00020244988802348C780224832
:1025A00080F808802048C0F80C901F4804821E481C
:1025B00085741D48C67401201B4908751A48807C23
:1025C000012804D100220821184800F0E4F8002472
:1025D00013E015480068015D154800F064FF1448D9
:1025E00000F072FF0028FAD16946114800F063FF3D
:1025F00000980D49C9680855641CBFB2BC42E8D3B5
:102600000948C07C012804D108220821074800F0AD
:10261000C2F800200449087500220221074800F092
:10262000BAF8BDE8F3870000B446002000900D40E2
:102630000080004010410D400024F40000A00D4037
:1026400080B540F2014000F0B3F940F2014000F0E3
:10265000DFF9002002BD0000DFF8141288420CD020
:10266000DFF8101288420AD0DFF80C12884208D036
:10267000DFF80812884206D007E0102070471120CA
:10268000FCE71220FAE71320F8E70020F6E710B481
:10269000D30705D510F580631B68C9B20B4304E06E
:1026A00010F580631B68C9B28B4310F5806423600A
:1026B000920705D510F584621268C9B2114305E08E
:1026C00010F584621268C9B232EA010110F5846023
:1026D000016010BC704710B4D30705D510F58163B5
:1026E0001B68C9B20B4304E010F581631B68C9B2D3
:1026F0008B4310F581642360930705D500F20443F2
:102700001B68C9B20B4304E000F204431B68C9B262
:102710008B4300F204442360520705D500F20C42BB
:102720001268C9B2114305E000F20C421268C9B246
:1027300032EA010100F20C40016010BC704710F554
:1027400082621268C9B2114310F58260016070475D
:1027500010F582621268C9B232EA010110F5826096
:1027600001607047C9B200F21C400160704738B583
:1027700004000D002000FFF76FFF04002900200077
:1027800000F006FA200000F01EFA31BDC9B210EBCD
:10279000810000687047D2B2C9B210EB81000260BC
:1027A000704738B504000D0000222900C9B220008E
:1027B000FFF76DFF00222900C9B2200000F09BFB4B
:1027C00031BD38B504000D0001222900C9B2200036
:1027D000FFF75DFF00222900C9B2200000F08BFB4B
:1027E00031BD38B504000D0002222900C9B2200015
:1027F000FFF74DFF00222900C9B2200000F07BFB4B
:1028000031BD38B504000D0002222900C9B22000F4
:10281000FFF73DFF00222900C9B2200000F06BFB4A
:1028200031BD38B504000D0002222900C9B22000D4
:10283000FFF72DFF00222900C9B2200000F05BFB4A
:1028400031BD38B504000D0002222900C9B22000B4
:10285000FFF71DFF08222900C9B2200000F04BFB42
:1028600031BD074909680843054908607047000001
:1028700000900D4000A00D4000B00D4000C00D4084
:1028800094200D4038B5C9B2002907D1DFF84C3289
:102890001D6855F40015DFF844321D60DFF83C3246
:1028A0001D68DFF83C321D40C0B2002801D155F050
:1028B0008075C9B2002902D05FF4803400E00024A2
:1028C00025432A431500DFF814020560DFF81402DF
:1028D0000068002506E0102000F05EF8DFF8040232
:1028E00000686D1C10F48030844203D04FF6FF70F6
:1028F0008542F0D331BDDFF8EC01016811F007012A
:10290000002000290BD002290DD00AD304290ED0B3
:102910000BD306290FD00CD307290ED00EE0724836
:102920000CE072480AE0724808E0724806E072481B
:1029300004E0724802E0724800E07248704767495C
:10294000096831F4E06151EA002164480160704790
:1029500064480068C0F30221002000290BD002293E
:102960000DD00AD304290ED00BD306290FD00CD3D7
:1029700007290ED00EE05C480CE05C480AE05C4899
:1029800008E05C4806E05C4804E05C4802E05C4823
:1029900000E05C48704700000138FDD17047704787
:1029A000082059490860FEE780B500F09FFD01BD91
:1029B00018B45649C0F3032251F822205349C0F3FA
:1029C000032351F823100B68012410F00F018C40F1
:1029D000234313600021009102E00099491C0091FB
:1029E00000991029F9D34949C0F3032251F8221064
:1029F000464AC0F3032352F823201268012310F043
:102A00000F0013FA00F032EA0000086011BC7047B2
:102A10003F49C0F3032251F822103D4AC0F303237B
:102A200052F823201268012310F00F0013FA00F06F
:102A30001043086070473649C0F3032251F8221052
:102A4000334AC0F3032352F823201268012310F005
:102A50000F0013FA00F032EA0000086070472D49B9
:102A6000C0F3032251F822102A4AC0F3032352F87C
:102A700023201268012310F00F0013FA00F0104316
:102A8000086070472349C0F3032251F82210214AFD
:102A9000C0F3032352F823201268012310F00F0023
:102AA00013FA00F032EA0000086070471A49C0F3D8
:102AB000032251F82210184AC0F3032352F82320AE
:102AC0001268012310F00F0013FA00F032EA000040
:102AD00008607047114908607047000000200D40F1
:102AE000F8FFFEFE04200D400048E8010024F40039
:102AF00000127A0000093D0080841E0040420F0051
:102B000020A1070090D0030074200D40C0392000A0
:102B100028392000403920005839200058200D4025
:102B200010F10C02136840F20112114019430C30ED
:102B30000160704710F10C0213680A4A134010F14B
:102B40000C0213600A00120E026001F0FF0252F440
:102B50000072031D1A60C1F3072151F4007108309F
:102B600001607047FEFEFFFF80B500F0BBFC00284F
:102B700001D0012000E00020C0B202BD80B500F00D
:102B8000ADFC002801D0012000E00020C0B202BD51
:102B900030B4654A1268654B9A420FD0624A136896
:102BA000002206E013EB82042468604D45F82240C1
:102BB000521CA32AF6D35D4A5B4B1A605B4A42F86B
:102BC000201030BC7047042806D15948006850F4E2
:102BD00080305749086028E0052806D1544800682D
:102BE00050F40030524908601FE0062806D15048D2
:102BF000006850F480204E49086016E00F2806D186
:102C00004C48006850F002004A4908600DE0102866
:102C10000BD301210200103A12F01F029140464AE4
:102C20001038400952F8200001607047042806D18E
:102C30003F48006830F480303D49086028E00528AE
:102C400006D13B48006830F40030394908601FE085
:102C5000062806D13648006830F4802034490860E0
:102C600016E00F2806D13348006830F002003149E1
:102C700008600DE010280BD301210200103A12F079
:102C80001F0291402D4A1038400952F8200001607F
:102C90007047022806D12A48006850F000402849B1
:102CA00008601FE00E2806D12548006850F08050CB
:102CB0002349086016E00F2806D12148006850F02B
:102CC00080601F4908600DE010280BD3012102002D
:102CD000103A12F01F0291401A4A1038400952F877
:102CE0002000016070470E2806D11548006850F09A
:102CF00000601349086016E00F2806D110480068EC
:102D000050F000700E4908600DE010280BD301212F
:102D10000200103A12F01F0291400B4A103840098D
:102D200052F820000160704708ED00E000400020EC
:102D300024ED00E010E000E070392000843920002C
:102D400004ED00E098392000AC39200030B4DFF801
:102D50000832002408E0DFF8003203E0DFF8FC313D
:102D600053F824301A60641C082C27D2C9B20B0017
:102D7000234113F00103002BF5D00300DFF8E051ED
:102D8000AB420CD0DFF8DC51AB420DD0DFF8D851AC
:102D9000AB420ED0DFF8D451AB42DFD0DBE7DFF837
:102DA000D03153F82430DDE7DFF8C83153F8243050
:102DB000D8E7DFF8C43153F82430D3E730BC70478C
:102DC00010B40023DFF89841A0420CD0DFF8944102
:102DD000A04229D0DFF89041A04246D0DFF88C41D4
:102DE000A04263D083E0C9B2012900D10023C9B257
:102DF000022900D10123C9B2042900D10223C9B29A
:102E0000082900D10323C9B2102900D10423C9B273
:102E1000202900D10523C9B2402900D10623C9B217
:102E2000802900D1072363E0C9B2012900D108231A
:102E3000C9B2022900D10923C9B2042900D10A2349
:102E4000C9B2082900D10B23C9B2102900D10C2323
:102E5000C9B2202900D10D23C9B2402900D10E23C7
:102E6000C9B2802900D10F2342E0C9B2012900D1A3
:102E70001023C9B2022900D11123C9B2042900D1FB
:102E80001223C9B2082900D11323C9B2102900D1D5
:102E90001423C9B2202900D11523C9B2402900D179
:102EA0001623C9B2802900D1172321E0C9B2012914
:102EB00000D11823C9B2022900D11923C9B20429AB
:102EC00000D11A23C9B2082900D11B23C9B2102985
:102ED00000D11C23C9B2202900D11D23C9B2402929
:102EE00000D11E23C9B2802900D11F2300E0002396
:102EF000136010BC704730B4174B002406E01F4B22
:102F000002E01F4B53F824301A60641C082C20D2B6
:102F1000C9B20B00234113F00103002BF5D00300CD
:102F20000F4DAB4209D00F4DAB420AD00E4DAB4214
:102F30000BD00E4DAB42E4D0E1E7124B53F82430F6
:102F4000E2E7114B53F82430DEE7104B53F82430FE
:102F5000DAE730BC7047000000400D40C438200064
:102F600000900D4000A00D4000B00D4000C00D408D
:102F70006438200084382000A438200080400D40B0
:102F800044382000E4372000043820002438200092
:102F900070B50400002500F00DF806004FF4006144
:102FA00020005422126890470500300000F007F816
:102FB000280070BD0948006810F00C00704701211E
:102FC00003E006490A6812F080010029F9D132F0C5
:102FD0000C021043014908607047000008300D40A2
:102FE00000B585B081218DF80C1003218DF80D10EE
:102FF0008DF80E0001200290012001900120009028
:1030000000230022032103A8FFF7B2FA05B000BD98
:1030100000B585B080B24FF4807290FBF2F252F0AE
:1030200080028DF80C2080B24FF4807290FBF2F396
:1030300002FB13008DF80D008DF80E100120029098
:10304000012001900320009004AB0022032103A87B
:10305000FFF78EFA05B000BD00B585B0010089B25A
:10306000090A8DF80C108DF80D0000208DF80E0067
:1030700001200290012001900320009004AB012266
:10308000032103A8FFF774FA9DF8120005B000BDF4
:1030900030B585B004000D0083208DF80C000620AB
:1030A0008DF80D0028008DF80E00280080B2000A6F
:1030B00010F007008DF80F00012002900120019010
:1030C0000120009000230122042103A8FFF750FAF9
:1030D000A8208DF80C0000208DF80D000020029033
:1030E000012001900120009000230022022103A86A
:1030F000FFF73EFA0120029000200190012000908D
:1031000000230222291F89B22000FFF731FA05B0FF
:1031100030BD70B586B004000D0003208DF80C00A2
:1031200004208DF80D0000208DF80E0000208DF891
:103130000F0001200290012001900420009004ABB8
:103140000122042103A8FFF713FA9DF812609DF8ED
:10315000130010F0070056EA002620208DF80C001E
:1031600000208DF80D000020029001200190022027
:10317000009004AB0122022103A8FFF7F9F9012016
:10318000029000200190300080B2009023000122C4
:10319000310089B20020FFF7EBF92E8006B070BD38
:1031A00000B585B001208DF80C0002208DF80D00CF
:1031B00000208DF80E0001200290012001900320D4
:1031C000009004AB0122032103A8FFF7D1F99DF879
:1031D000120005B000BD30B587B004000621002202
:1031E00005AD2800FDF708FC0621002203AD2800EC
:1031F000FDF702FC00208DF8140000208DF815006A
:1032000001200290012001900620009003AB0122D2
:10321000062105A8FFF7ACF99DF80E0020709DF877
:103220000F0060709DF81000A0709DF81100E07014
:1032300007B030BDF8B504000E0017001D002000D7
:1032400000F03CF8B6EB071F09D214F1300000681B
:1032500050F0200014F1300108607F0807E014F1FD
:103260003000006830F0200014F130010860F000F8
:10327000B0FBF7F0401C40080100890914F124025A
:10328000116010F03F0014F12801086014F12C00C7
:103290000560002018342060F1BD10F12C01096890
:1032A00051F0100110F12C02116010F130010A6888
:1032B00040F201310A4330300260704710F11801CA
:1032C00009680907FAD410F12C01096831F01001DE
:1032D00010F12C02116010F130010A6819490A40FE
:1032E00030300260704710F12C01096831F0100194
:1032F0002C300160704710F13002126832F0100279
:10330000114330300160704710F118010968C90697
:10331000FAD40068704710F1180212689206FAD4C5
:10332000C9B20160704710B5074A904201D1152417
:1033300000E016242000FFF72BFC2000FFF743FCE1
:1033400010BD0000FEFCFFFF00C0004010F138027D
:103350001268114338300160704710F1380212686A
:1033600032EA0101383001607047C9B2002902D049
:103370004030006801E03C30006870474430016034
:10338000704700F6C870016070470000114800687F
:103390001149096850EA01201049096850EA0140C2
:1033A0000F49096850EA016070470E490968C9076A
:1033B000FBD50100090E0A4A1160C0F30741074A14
:1033C0001160C0F30721044A116000F0FF000149B9
:1033D0000860704740500D4044500D4048500D402B
:1033E0004C500D4050500D4038B504000D0000F019
:1033F00012F8EDB2012D01D10A4900E00A4914206A
:1034000000FB0144641E14204143B4FBF1F0401E54
:103410000649086031BD0648006850F010000449B4
:1034200008607047801A0600A08601000C00024068
:103430002000024030B4022B01D1082400E0002417
:10344000002B01D1002500E00425029B2C43051D23
:103450002C60B1FBF3F100239B1CB1FBF3F4641E61
:10346000B4F5807FF8D2039910F110052B60930119
:1034700013F0C00312F0300253EA04231A43491E2A
:103480000A431400046030BC7047011D096851F004
:103490000201001D01607047011D096831F0020141
:1034A000001D0160704710F10C0212689207FAD5F6
:1034B00008300160704710F10C0212685207FAD50B
:1034C00008300068086070470C300068000910F090
:1034D0000100704700F6C87001607047EFF310807C
:1034E00072B67047EFF3108062B6704730BF704716
:1034F0000000891112239B322446AD573665BF74F4
:10350000488CC19D5AAFD3BE6CCAE5DB7EE9F7F8A3
:103510008110080193331A22A5562C47B7753E64D3
:10352000C99C408DDBBF52AEEDDA64CBFFF976E883
:1035300002218B30100299132667AF763444BD55B3
:103540004AADC3BC588ED19F6EEBE7FA7CC8F5D963
:1035500083310A2091121803A7772E66B5543C4593
:10356000CBBD42ACD99E508FEFFB66EAFDD874C943
:1035700004428D5316619F702004A9153227BB3673
:103580004CCEC5DF5EEDD7FC6888E1997AABF3BA23
:1035900085520C4397711E60A1142805B3373A2653
:1035A000CDDE44CFDFFD56ECE9986089FBBB72AA03
:1035B00006638F7214409D512225AB343006B91733
:1035C0004EEFC7FE5CCCD5DD6AA9E3B8788AF19BE3
:1035D00087730E6295501C41A3352A24B116380713
:1035E000CFFF46EEDDDC54CDEBB962A8F99A708BC3
:1035F000088481951AA793B62CC2A5D33EE1B7F0F3
:103600004008C919522BDB3A644EED5F766DFF7CA2
:10361000899400859BB712A6ADD224C3BFF136E0D2
:10362000C1184809D33B5A2AE55E6C4FF77D7E6C82
:103630000AA583B4188691972EE3A7F23CC0B5D1B2
:103640004229CB38500AD91B666FEF7E744CFD5D62
:103650008BB502A499961087AFF326E2BDD034C192
:10366000C3394A28D11A580BE77F6E6EF55C7C4D42
:103670000CC685D71EE597F42880A1913AA3B3B272
:10368000444ACD5B5669DF78600CE91D722FFB3E22
:103690008DD604C79FF516E4A9902081BBB332A252
:1036A000C55A4C4BD7795E68E11C680DF33F7A2E02
:1036B0000EE787F61CC495D52AA1A3B03882B19332
:1036C000466BCF7A5448DD59622DEB3C700EF91FE2
:1036D0008FF706E69DD414C5ABB122A0B992308312
:1036E000C77B4E6AD5585C49E33D6A2CF11E780FC2
:1036F00019E050F8042BD30744BFA9F101039A182D
:10370000091F0023042942F8043BF9D25FEA817CB7
:10371000134604D54FF0000CA2F800C09B1CC9074B
:1037200044BF0021197050F8041B0029E1D17047F3
:103730000301020000011F0000020000090119003E
:103740000A0183000B0111000F017A0012010A0027
:10375000130183001401640000031F000004000033
:10376000010316000E0300000C03020010B450F811
:10377000041B79B10268436802440830DC0744BF87
:10378000A9F10104E31852F8044B43F8044B091F54
:10379000F9D1ECE710BC704710B5074979441831EE
:1037A000064C7C44163404E00A68081D114488471E
:1037B0000146A142F8D110BD080000002800000019
:1037C00031FFFFFF6C040000904200200000000069
:1037D0009DFFFFFF04000000200200008C4200203B
:1037E0000000000080400D4084400D4088400D40A6
:1037F0008C400D4090400D4094400D4098400D404D
:103800009C400D40A0400D40A4400D40A8400D40FC
:10381000AC400D40B0400D40B4400D40B8400D40AC
:10382000BC400D40C0400D40C4400D40C8400D405C
:10383000CC400D40D0400D40D4400D40D8400D400C
:10384000DC400D40E0400D40E4400D40E8400D40BC
:10385000EC400D40F0400D40F4400D40F8400D406C
:10386000FC400D4000400D4004400D4008400D401C
:103870000C400D4010400D4014400D4018400D40CC
:103880001C400D4020400D4024400D4028400D407C
:103890002C400D4030400D4034400D4038400D402C
:1038A0003C400D4040400D4044400D4048400D40DC
:1038B0004C400D4050400D4054400D4058400D408C
:1038C0005C400D4060400D4064400D4068400D403C
:1038D0006C400D4070400D4074400D4078400D40EC
:1038E0007C400D4000F00BF8002801D0FFF754FF9A
:1038F0000020AFF30080FDF7B3F800F002F80120DC
:10390000704700F001B800000746384600F002F8A2
:10391000FBE7000080B5AFF30080024A11001820D9
:10392000ABBEFBE72600020008200D4018200D402A
:1039300028200D4038200D4048200D40A8200D4083
:103940000C200D401C200D402C200D403C200D4033
:103950004C200D40AC200D4010200D4020200D408B
:1039600030200D4040200D4050200D40B0200D4033
:1039700000E100E004E100E008E100E00CE100E02B
:1039800010E100E080E100E084E100E088E100E097
:103990008CE100E090E100E000E200E004E200E001
:1039A00008E200E00CE200E010E200E080E200E06B
:1039B00084E200E088E200E08CE200E090E200E0D7
:1039C00014200D4024200D4034200D4044200D4093
:1039D00054200D4080B500F004F801BDFEE7FEE77D
:1039E000FEE7AFF30080AFF30080FFF77BFF00003E
:0C39F00006007F00E803FF070100000054
:020000040027D3
:0CFFD400FFFFFFEF000000000000200015
:04000005002039E3BB
:00000001FF
